:020000040000FA
:100000000C945C000C946E000C946E000C946E00CA
:100010000C946E000C946E000C946E000C946E00A8
:100020000C946E000C946E000C946E000C946E0098
:100030000C946E000C946E000C946E000C946E0088
:100040000C94C6000C946E000C946E000C946E0020
:100050000C946E000C946E000C946E000C946E0068
:100060000C946E000C946E00000000080002010069
:100070000003040700000000000000000000000072
:10008000250028002B0000000000240027002A0083
:10009000040404040404040402020202020203032E
:1000A0000303030301020408102040800102040836
:1000B000102001020408102011241FBECFEFD8E049
:1000C000DEBFCDBF21E0A0E0B1E001C01D92AA32A9
:1000D000B207E1F70E9410010C940F050C94000088
:1000E00090E0FC01EC55FF4F249180579F4FFC019D
:1000F0008491882399F090E0880F991FFC01EA57BA
:10010000FF4FA591B491FC01E458FF4F8591949164
:100110008FB7F894EC91E22BEC938FBF08958E503B
:10012000806480937C0080917A00806480937A0060
:1001300080917A0086FDFCCF8091780090917900C3
:1001400008953FB7F8948091260190912701A091DE
:100150002801B091290126B5A89B05C02F3F19F0B1
:100160000196A11DB11D3FBFBA2FA92F982F882737
:10017000BC01CD01620F711D811D911D42E0660F12
:10018000771F881F991F4A95D1F708951F920F92E4
:100190000FB60F9211242F933F938F939F93AF939A
:1001A000BF938091220190912301A0912401B091ED
:1001B00025013091210123E0230F2D3758F50196B9
:1001C000A11DB11D20932101809322019093230151
:1001D000A0932401B09325018091260190912701DD
:1001E000A0912801B09129010196A11DB11D809314
:1001F000260190932701A0932801B0932901BF9174
:10020000AF919F918F913F912F910F900FBE0F90C3
:100210001F90189526E8230F0296A11DB11DD2CF7D
:10022000789484B5826084BD84B5816084BD85B5D1
:10023000826085BD85B5816085BD80916E008160DD
:1002400080936E0010928100809181008260809383
:100250008100809181008160809381008091800085
:100260008160809380008091B10084608093B100B0
:100270008091B00081608093B00080917A008460AA
:1002800080937A0080917A00826080937A008091D6
:100290007A00816080937A0080917A0080688093F0
:1002A0007A001092C100C830D1052CF48C2F0E9426
:1002B00070002196F8CF8DE00E94700021EB222E75
:1002C00020E0322E0DE910E034E6432E512C612C53
:1002D000712CC0E0D0E02FB7F8948091220190916A
:1002E0002301A0912401B09125012FBF80931D010E
:1002F00090931E01A0931F01B093200183E10E94FF
:100300008F00BC01990F880B990B0E94160420E006
:1003100030E040EA50E40E94A20420E030EC4FE7D5
:1003200054E40E9473036B017C01C0921901D092C6
:100330001A01E0921B01F0921C018EE00E948F00D6
:10034000BC01990F880B990B0E94160420E030E045
:1003500040EA50E40E94A20420E030E040E251E490
:100360000E94A20420E030EC4FE754E40E947303A3
:10037000A70196010E940603609315017093160170
:1003800080931701909318012AE03FEB44E05EE36D
:1003900060911101709112018091130190911401EB
:1003A0000E94A2046B017C0123EC3AEB41E05EE386
:1003B00060910D0170910E0180910F0190911001DB
:1003C0000E94A2049B01AC01C701B6010E94060372
:1003D0006B017C012AE93CE74BEE5FE36091090188
:1003E00070910A0180910B0190910C010E94A2046E
:1003F0009B01AC01C701B6010E9407036B017C01A0
:100400002BE239ED49E55FE360910501709106014A
:1004100080910701909108010E94A2049B01AC0108
:10042000C701B6010E9406036093010170930201A7
:10043000809303019093040120E030E04FE753E400
:100440000E94A20420E030E040EA50E40E947303DE
:1004500020E030E040EE50E40E9473030E94E50388
:100460006BB98091110190911201A0911301B0918B
:10047000140180930D0190930E01A0930F01B0938E
:1004800010018091150190911601A0911701B09172
:1004900018018093110190931201A0931301B0935E
:1004A00014018091090190910A01A0910B01B09172
:1004B0000C018093050190930601A0930701B0936E
:1004C00008018091010190910201A0910301B09176
:1004D00004018093090190930A01A0930B01B0934A
:1004E0000C012091000181E0282720930001E5E71D
:1004F000F0E09491F1018491F80134913323F1F00B
:10050000992359F0933009F461C008F054C0913038
:1005100009F462C0923009F463C0E32FF0E0EE0FFB
:10052000FF1FE458FF4FA591B4919FB7F894211194
:1005300064C02C91809582238C939FBF2FB7F89431
:100540008091220190912301A0912401B091250175
:100550002FBF40911D0150911E0160911F017091AC
:100560002001841B950BA60BB70B73016201C81AFF
:10057000D90AEA0AFB0A0E94A1004B015C01C114DE
:10058000D104E104F104E1F10E94A10068197909A4
:100590008A099B09683E73408105910580F3F1E06B
:1005A000CF1AD108E108F10828EE820E23E0921E4E
:1005B000A11CB11CE4CF9730B1F09830D1F0943049
:1005C00009F0ABCF909180009F7D03C09091800097
:1005D0009F7790938000A1CF94B59F7794BD9DCFD6
:1005E00094B59F7DFBCF9091B0009F779093B00022
:1005F00094CF9091B0009F7DF9CF2C91822B9CCF0E
:10060000209709F468CE0E94000065CE5058BB27A1
:10061000AA270E941E030C9468040E945A0438F012
:100620000E94610420F039F49F3F19F426F40C94E1
:1006300057040EF4E095E7FB0C945104E92F0E9457
:10064000790458F3BA17620773078407950720F0F7
:1006500079F4A6F50C949B040EF4E0950B2EBA2FBA
:10066000A02D0B01B90190010C01CA01A0011124B8
:10067000FF27591B99F0593F50F4503E68F11A1664
:10068000F040A22F232F342F4427585FF3CF4695F5
:1006900037952795A795F0405395C9F77EF41F1617
:1006A000BA0B620B730B840BBAF09150A1F0FF0FE1
:1006B000BB1F661F771F881FC2F70EC0BA0F621FCD
:1006C000731F841F48F4879577956795B795F795BD
:1006D0009E3F08F0B0CF9395880F08F09927EE0F52
:1006E0009795879508950E9487030C9468040E944B
:1006F000610458F00E945A0440F029F45F3F29F049
:100700000C94510451110C949C040C9457040E94B5
:10071000790468F39923B1F3552391F3951B550B95
:10072000BB27AA2762177307840738F09F5F5F4FC4
:10073000220F331F441FAA1FA9F335D00E2E3AF003
:10074000E0E832D091505040E695001CCAF72BD01B
:10075000FE2F29D0660F771F881FBB1F261737076C
:100760004807AB07B0E809F0BB0B802DBF01FF279E
:1007700093585F4F3AF09E3F510578F00C94510426
:100780000C949C045F3FE4F3983ED4F386957795F0
:100790006795B795F7959F5FC9F7880F911D969557
:1007A000879597F90895E1E0660F771F881FBB1FB3
:1007B000621773078407BA0720F0621B730B840B60
:1007C000BA0BEE1F88F7E09508950E94810488F027
:1007D0009F5798F0B92F9927B751B0F0E1F0660F05
:1007E000771F881F991F1AF0BA95C9F714C0B13046
:1007F00091F00E949B04B1E008950C949B04672F34
:10080000782F8827B85F39F0B93FCCF38695779574
:100810006795B395D9F73EF490958095709561955D
:100820007F4F8F4F9F4F0895E89409C097FB3EF488
:1008300090958095709561957F4F8F4F9F4F99232D
:10084000A9F0F92F96E9BB279395F69587957795AB
:100850006795B795F111F8CFFAF4BB0F11F460FF6B
:100860001BC06F5F7F4F8F4F9F4F16C0882311F0C3
:1008700096E911C0772321F09EE8872F762F05C0D7
:10088000662371F096E8862F70E060E02AF09A9572
:10089000660F771F881FDAF7880F9695879597F967
:1008A000089597F99F6780E870E060E008959FEFF2
:1008B00080EC089500240A941616170618060906F7
:1008C000089500240A9412161306140605060895C6
:1008D000092E0394000C11F4882352F0BB0F40F44E
:1008E000BF2B11F460FF04C06F5F7F4F8F4F9F4F8E
:1008F000089557FD9058440F551F59F05F3F71F010
:100900004795880F97FB991F61F09F3F79F0879576
:100910000895121613061406551FF2CF4695F1DFFF
:1009200008C0161617061806991FF1CF869571058F
:10093000610508940895E894BB2766277727CB01C3
:1009400097F908950E94B5040C9468040E945A0413
:1009500038F00E94610420F0952311F00C945104AA
:100960000C94570411240C949C040E94790470F395
:10097000959FC1F3950F50E0551F629FF001729F44
:10098000BB27F00DB11D639FAA27F00DB11DAA1F53
:10099000649F6627B00DA11D661F829F2227B00DA0
:1009A000A11D621F739FB00DA11D621F839FA00D2B
:1009B000611D221F749F3327A00D611D231F849F7B
:1009C000600D211D822F762F6A2F11249F575040D2
:1009D0009AF0F1F088234AF0EE0FFF1FBB1F661F4D
:1009E000771F881F91505040A9F79E3F510580F016
:1009F0000C9451040C949C045F3FE4F3983ED4F3B0
:100A0000869577956795B795F795E7959F5FC1F7B9
:100A1000FE2B880F911D9695879597F90895F89468
:020A2000FFCF06
:107E0000112484B714BE81FFF0D085E080938100F7
:107E100082E08093C00088E18093C10086E0809377
:107E2000C20080E18093C4008EE0C9D0259A86E02C
:107E300020E33CEF91E0309385002093840096BBD3
:107E4000B09BFECF1D9AA8958150A9F7CC24DD24C4
:107E500088248394B5E0AB2EA1E19A2EF3E0BF2EE7
:107E6000A2D0813461F49FD0082FAFD0023811F036
:107E7000013811F484E001C083E08DD089C08234E0
:107E800011F484E103C0853419F485E0A6D080C0E4
:107E9000853579F488D0E82EFF2485D0082F10E0AE
:107EA000102F00270E291F29000F111F8ED06801E7
:107EB0006FC0863521F484E090D080E0DECF843638
:107EC00009F040C070D06FD0082F6DD080E0C81688
:107ED00080E7D80618F4F601B7BEE895C0E0D1E017
:107EE00062D089930C17E1F7F0E0CF16F0E7DF06D8
:107EF00018F0F601B7BEE89568D007B600FCFDCFD4
:107F0000A601A0E0B1E02C9130E011968C91119780
:107F100090E0982F8827822B932B1296FA010C0160
:107F200087BEE89511244E5F5F4FF1E0A038BF0790
:107F300051F7F601A7BEE89507B600FCFDCF97BE46
:107F4000E89526C08437B1F42ED02DD0F82E2BD052
:107F50003CD0F601EF2C8F010F5F1F4F84911BD097
:107F6000EA94F801C1F70894C11CD11CFA94CF0C13
:107F7000D11C0EC0853739F428D08EE10CD085E9AC
:107F80000AD08FE07ACF813511F488E018D01DD067
:107F900080E101D065CF982F8091C00085FFFCCF94
:107FA0009093C60008958091C00087FFFCCF809118
:107FB000C00084FD01C0A8958091C6000895E0E648
:107FC000F0E098E1908380830895EDDF803219F02E
:107FD00088E0F5DFFFCF84E1DECF1F93182FE3DFCA
:107FE0001150E9F7F2DF1F91089580E0E8DFEE27F6
:047FF000FF270994CA
:027FFE00040479
:00000001FF
